:060000000A128A11FC2F18
:100D3E000A128A11BC260A128A1183160313111481
:100D4E0008000A128A11BC260A128A11831603138E
:100D5E0011150800F0000A128A11BC260A128A1117
:100D6E0070088312031393000800831603131419DB
:100D7E00C12EC22EBC2E11081F39031DC72EC82E20
:100D8E00BC2E0800F401F501701CCE2ECF2ED52EF0
:100D9E007208F4070318F50A7308F50701300310FB
:100DAE00F20DF30DFF3E031DD62E01300310F10C94
:100DBE00F00CFF3E031DDD2E70087104031DE82E9E
:100DCE00E92ECB2E7508F1007408F000080064308F
:100DDE000A128A1122270A128A110A128A119F26D2
:100DEE000A128A11D0300A128A11B1260A128A11F9
:100DFE0088300A128A11B1260A128A11FF300A129D
:100E0E008A11B1260A128A110A128A11A8260A120A
:100E1E008A110B3083120313B0002630AF005D3001
:100E2E00AE00AE0B182FAF0B182FB00B182FF42EE1
:100E3E000A128A11002883120313A9002830940085
:100E4E008316031391016430F2000030F300831215
:100E5E0003132908A700A8010310A70DA80D03105E
:100E6E00A70DA80D2708F0002808F1000A128A1114
:100E7E00C9260A128A117008F6007108F7000030B0
:100E8E00F71BFF30F800F9000030FD007A30FC004F
:100E9E001230FB000030FA000A128A115F270A1284
:100EAE008A117608FF3E83160313930094010800FF
:100EBE0083120313A201F91F652F662F732FF609F4
:100ECE00F709F809F909F60A0319F70A0319F80AD6
:100EDE000319F90AA201A20AFD1F762F772F862F7A
:100EEE00FA09FB09FC09FD09FA0A0319FB0A0319A1
:100EFE00FC0A0319FD0A0130A0002008A2060030EA
:100F0E00A6000030A5000030A4000030A300790830
:100F1E007804770476040319952F962FE32FA101F9
:100F2E00A10AA62F0130A0000310F60DF70DF80D43
:100F3E00F90DA00B9B2F0130A0002008A107F91F6F
:100F4E00A92FAA2F992F0130A0000310A30DA40DD5
:100F5E00A50DA60DA00BAC2F79087D02031DC12F88
:100F6E0078087C02031DC12F77087B02031DC12F59
:100F7E0076087A02031CC42FC52FD42F7608FA02E6
:100F8E007708031C770FFB027808031C780FFC020E
:100F9E007908031C790FFD02231401300310F90C9C
:100FAE00F80CF70CF60CFF3E031DD52F0130A102F5
:100FBE00031DE22FE32FAA2F22080319E72FE82F94
:100FCE00F32FA309A409A509A609A30A0319A40AC4
:100FDE000319A50A0319A60A2608F9002508F80020
:100FEE002408F7002308F600080083010A128A116C
:020FFE00EE2ED5
:08400000FF3FFF3FFF3FFF3FC0
:02400E003B3F36
:00000001FF
