:100000000A128A11FC2FFF1B0D2883137F188317F8
:100010000008840A0319FF0A080000308A00040857
:10002000840A82070034013400340A340034643412
:100030000034E83403341034273443346F346E34DE
:100040007634653472347434203456346F346C34FE
:100050002D343E34743465346D347034003454348B
:1000600065346D347034653472346134743475348D
:100070007234653420343D34203425346434003403
:1009AE008130831203139F008E30831603139F0032
:1009BE000800831203131F151F19E62CE72CE32CD6
:1009CE001E08F100831603131E08F0000800013004
:1009DE000A128A11C7250A128A1102300A128A11C6
:1009EE00C7250A128A1106300A128A11C7250A1261
:1009FE008A1128300A128A11C7250A128A110C3060
:100A0E000A128A11C7250A128A110800F401F5018B
:100A1E00701C122D132D192D7208F4070318F50AE8
:100A2E007308F50701300310F20DF30DFF3E031DA1
:100A3E001A2D01300310F10CF00CFF3E031D212D79
:100A4E0070087104031D2C2D2D2D0F2D7508F1002E
:100A5E007408F0000800472D7308FF007208840028
:100A6E000A128A1103200A128A110A128A115825B3
:100A7E000A128A110130F2070318F30A0030F30745
:100A8E00730883120313FF00720884000A128A117E
:100A9E0003200A128A11003A031D562D572D332DAD
:100AAE000800F1007108F03983120313880007144F
:100ABE00FD30F000700887050715F930F000F00BD7
:100ACE00662D692DFB30F000700883120313870525
:100ADE007108F00003300310F00DFF3E031D722D60
:100AEE000310700DF03988000714FD30F000700807
:100AFE0087050715F930F000F00B832D862DFB309E
:100B0E00F000700883120313870508007808790433
:100B1E000319922D932DC22DFD01FD0AA12D013039
:100B2E000310F80DF90DFF3E031D972D0130FC004B
:100B3E007C08FD07F91FA42DA52D962D79087B02A3
:100B4E00031DAB2D78087A02031CAE2DAF2DB52DEB
:100B5E007808FA027908031CFB03FB02013003102C
:100B6E00F90CF80CFF3E031DB62D0130FD02031DDE
:100B7E00C12DC22DA52D7B08F9007A08F8000800BA
:100B8E00F1007108F039831203138800FE30F00073
:100B9E0070088705FD30F000700887050715F930DD
:100BAE00F000F00BD82DDB2DFB30F0007008831217
:100BBE00031387057108F00003300310F00DFF3E9C
:100BCE00031DE42D0310700DF0398800FE30F00087
:100BDE0070088705FD30F000700887050715F9309D
:100BEE00F000F00BF82DFB2DFB30F0007008831297
:100BFE00031387050800F501F60170087104031947
:100C0E00092E0A2E412EF701F70A182E0130031075
:100C1E00F00DF10DFF3E031D0E2E0130F400740891
:100C2E00F707F11F1B2E1C2E0D2E01300310F50D94
:100C3E00F60DFF3E031D1D2E71087302031D292E96
:100C4E0070087202031C2C2E2D2E342E7008F20208
:100C5E007108031CF303F302751401300310F10C39
:100C6E00F00CFF3E031D352E0130F702031D402E02
:100C7E00412E1C2E7608F1007508F0000800831234
:100C8E000313A101F71F4C2E4D2E542EF609F70912
:100C9E00F60A0319F70AA101A10AF91F572E582EB9
:100CAE00612EF809F909F80A0319F90A0130FA0058
:100CBE007A08A106A201A301760877040319682E0B
:100CCE00692EA02EA001A00A772E01300310F60D7A
:100CDE00F70DFF3E031D6D2E0130FA007A08A007B6
:100CEE00F71F7A2E7B2E6C2E01300310A20DA30D52
:100CFE00FF3E031D7C2E77087902031D882E760891
:100D0E007802031C8B2E8C2E932E7608F802770811
:100D1E00031CF903F902221401300310F70CF60C30
:100D2E00FF3E031D942E0130A002031D9F2EA02E08
:100D3E007B2E21080319A42EA52EAA2EA209A309E3
:100D4E00A20A0319A30A2308F7002208F6000800D6
:100D5E0083160313880187010A128A11D7240A12F7
:100D6E008A110A128A11EE240A128A110A128A11A3
:100D7E00E0240A128A11710883120313C30070084B
:100D8E00C20080300A128A11C7250A128A110B304E
:100D9E00F2008030F3000A128A1132250A128A11EB
:100DAE00FF30F6000330F700831203134308F100FF
:100DBE004208F000F430F2000130F3000A128A11FA
:100DCE000D250A128A117108F9007008F8000A122E
:100DDE008A1146260A128A11770883120313C50058
:100DEE007608C4001D30A0004508A2004408A100EA
:100DFE0033300A128A1122270A128A11C0300A12BF
:100E0E008A11C7250A128A113330F2000030F3001E
:100E1E000A128A1132250A128A1104308312031320
:100E2E00B2003D30B100B10B1A2FB20B1A2FBD2EEE
:100E3E000A128A11002883120313AB002130A60078
:100E4E00E72F25302C0603192D2F2E2F382F2B0888
:100E5E0084002C08831380000130A3002308AB0705
:100E6E00E72FA7010130A007FF30200784000A12E8
:100E7E008A110D200A128A11AC00A300A4012408C5
:100E8E00003A03194B2FE72F2308003A0319F72FC7
:100E9E00643A0319562F0D3A0319562FE72F2608D9
:100EAE00840083130008A900840A0008AA000230F7
:100EBE00A3002308A607AA1F652F662F6F2F0330E6
:100ECE00A3002308A704A909AA09A90A0319AA0AB3
:100EDE00AC01AC0A2C08A3002307013E84000A12C1
:100EEE008A110D200A128A11A4000A128A110D20ED
:100EFE000A128A11A50025082A02031D882F24082C
:100F0E00290203188B2F8C2F8D2F972F0130A300C2
:100F1E002308AC0705302C06031D962F972F712F33
:100F2E002708033903199C2F9D2FA62F2B08840009
:100F3E002D30831380000130A3002308AB072C084B
:100F4E00A800DE2F0A30F8000030F9002808A300B0
:100F5E002307013E84000A128A110D200A128A11FB
:100F6E00F0000A128A110D200A128A11F1002A08C5
:100F7E00F3002908F2000A128A1102260A128A11B7
:100F8E007108FB007008FA000A128A118D250A12E8
:100F9E008A117808303E83120313AC002B088400AC
:100FAE002C08831380000130A3002308AB07FF3009
:100FBE00A3002308A807280A031DE62FE72FA92F51
:100FCE000130A007FF30200784000A128A110D207D
:100FDE000A128A11AC002C08031DF62FF72F282FAA
:100FEE002B08840083138001080083010A128A11E2
:020FFE00AF2E14
:08400000FF3FFF3FFF3FFF3FC0
:02400E003B3F36
:00000001FF
