:060000000A128A11EE2F26
:100E70007E088A007F0882000A128A1138270A1227
:100E80008A118000840A04087D0603190034FF0AD1
:100E90000319FE0A3C2F3F340034063400345B341F
:100EA00000344F340034663400346D3400347D3403
:100EB0000034073400347F3400346F340034831638
:100EC000031386018701FF30880083120313B401E6
:100ED000B501B601B701203084003830F4000408B1
:100EE000F5001430F6007408840083130008F7003E
:100EF000F40A7508840077088000F50AF60B732F52
:100F000083120313081C852F862F902F0130B607FC
:100F10000318B70A0030B70708188F2F902F8C2FAF
:100F20003708803AFF0080307F02031D992F0A3076
:100F30003602031C9C2F9D2FA72F01308312031311
:100F4000B4070318B50A0030B507B601B70183121C
:100F500003133508803AFF0080307F02031DB22F53
:100F60000A303402031CB52FB62FC02F0130831274
:100F70000313B6070318B70A0030B707B401B50169
:100F800002308312031387003408F4007407203EF4
:100F900084008313000886001130F5003A30F40015
:100FA000F40BD02FF50BD02F000001308312031368
:100FB00087003608F4007407203E8400831300087D
:100FC00086001130F5003A30F400F40BE52FF50BF4
:100FD000E52F0000802F0A128A11002883134C305D
:100FE000FD000730FE004B30FF00383084000A124D
:100FF0008A113C270A128A1183010A128A115F2F73
:08400000FF3FFF3FFF3FFF3FC0
:02400E00FB3F76
:00000001FF
