:100000000A128A11FC2F00308A000408840A820731
:100010000034483445344C344C344F342034573455
:0E0020004F3452344C344434203421340034F4
:100EC200F10071088312031386000714FD30F0004D
:100ED200700887050715F930F000F00B6E2F712F9F
:100EE200FB30F0007008831203138705F930F0001D
:100EF200F00B792F7C2F0800F10071088312031385
:100F02008600FE30F00070088705FD30F0007008A2
:100F120087050715F930F000F00B8D2F902FFB306D
:100F2200F0007008831203138705F930F000F00B0C
:100F3200982F9B2F080002300A128A117D270A126D
:100F42008A1138300A128A117D270A128A11063054
:100F52000A128A117D270A128A1101300A128A1195
:100F62007D270A128A110C300A128A117D270A1271
:100F72008A110800F300CD2F730884000A128A1127
:100F820003200A128A110A128A1161270A128A118F
:100F92000130F2007208F307730884000A128A1102
:100FA20003200A128A11003A031DD82FD92FBD2F10
:100FB200080083160313860187010A128A119C27EF
:100FC2000A128A1180300A128A117D270A128A11A6
:100FD20001300A128A11BB270A128A112130F50048
:100FE2007630F400F40BF32FF50BF32F0000E32F10
:0E0FF2000A128A11002883010A128A11DA2FCE
:08400000FF3FFF3FFF3FFF3FC0
:02400E003B3F36
:00000001FF
