:100000000A128A11FC2F00308A000408840A820731
:100010000034483465346C346C346F3420345734D5
:0E0020006F3472346C34643420342134003474
:100E380083160313880187010A128A1135270A12BB
:100E48008A1180300A128A11A8270A128A110130E1
:100E58000A128A1154270A128A11312F0A128A118A
:100E6800002801300A128A11A8270A128A110230B2
:100E78000A128A11A8270A128A1106300A128A1140
:100E8800A8270A128A1128300A128A11A8270A12DA
:100E98008A110C300A128A11A8270A128A1108002E
:100EA800F300662F730884000A128A1103200A12BD
:100EB8008A110A128A1173270A128A110130F20064
:100EC8007208F307730884000A128A1103200A12B1
:100ED8008A11003A031D712F722F562F0800F10056
:100EE8007108F0398312031388000714FD30F000ED
:100EF800700887050715F930F000F00B812F842F53
:100F0800FB30F00070088312031387057108F000A6
:100F180003300310F00DFF3E031D8D2F0310700DDD
:100F2800F03988000714FD30F000700887050715B0
:100F3800F930F000F00B9E2FA12FFB30F000700865
:100F48008312031387050800F2007208F039831230
:100F5800031388000130F000003007180130013E0B
:100F6800B72F0310F00DFF3E031DB52F7008FF3A91
:100F7800F100710887050130F000070C0139013EC6
:100F8800C72F0310F00DFF3E031DC52F7008FF3A51
:100F9800F100710887050715F930F000F00BD22F22
:100FA800D52FFB30F00070088312031387057208F1
:100FB800F00003300310F00DFF3E031DDE2F031079
:100FC800700DF0398800FE30F00070088705FD309C
:100FD800F000700887050715F930F000F00BF22FC4
:100FE800F52FFB30F0007008831203138705080003
:080FF80083010A128A111C2F6B
:08400000FF3FFF3FFF3FFF3FC0
:02400E003B3F36
:00000001FF
