:060000000A128A11E02F34
:100998007E088A007F0882000A128A11CC240A1273
:1009A8008A118000840A04087D0603190034FF0AAE
:1009B8000319FE0AD02C113400341B3400341534CA
:1009C800003411340034113400341134003411343B
:1009D8000034003400340134003402340034043468
:1009E80000340834003410340034203400344034E7
:1009F800003480340034113400340A3400340434B0
:100A0800003404340034043400340434003404342E
:100A18000034003400341F34003404340034043407
:100A2800003404340034043400340434003404340E
:100A380000340034003411340034133400341334D7
:100A480000341534003415340034193400341134AA
:100A580000340034003406340034093400340934D6
:100A680000340934003409340034093400340634BD
:100A78000034003400348316031388018701A03042
:100A88008400D430F0000408F1001030F20070083F
:100A9800840083130008F300F00A710884007308C7
:100AA8008000F10AF20B4B2D20308400C430F00096
:100AB8000408F1001030F200700884008313000865
:100AC800F300F00A7108840073088000F10AF20B41
:100AD800602D30308400C030F0000408F100103080
:100AE800F2007008840083170008F300F00A710808
:100AF8008400831373088000F10AF20B752D4030CF
:100B08008400B030F0000408F1001030F2007008E2
:100B1800840083170008F300F00A71088400831327
:100B280073088000F10AF20B8B2D50308400A0303E
:100B3800F0000408F1001030F200700884008317F8
:100B48000008F300F00A710884008313730880001A
:100B5800F10AF20BA12D603084009030F0000408F7
:100B6800F1001030F2007008840083170008F300C9
:100B7800F00A71088400831373088000F10AF20BED
:100B8800B72D83160313B001B101F401F5018316E3
:100B98000313BA01BB01831603133A08F000700768
:100BA800A03E840083130009831203138800831670
:100BB80003133A08F0007007203E84000008F10093
:100BC800300AE82D0310F10DFF3E031DE62D7108D4
:100BD8008312031387005330F000F00BF12D01301E
:100BE80083160313BA070318BB0A0030BB073B0878
:100BF800803AFF0080307F02031D042E08303A023D
:100C0800031C072E082ECF2D0130F4070318F50A10
:100C18000030F5077508803AFF0080307F02031D19
:100C2800172E0A307402031C1A2E1B2ECB2D0130EE
:100C380083160313B0070318B10A0030B10731084F
:100C4800803AFF0080307F02031D2C2E08303002CE
:100C5800031C2F2E302EC92D83160313B201B301A6
:100C6800F601F70183160313BC01BD0183160313B4
:100C78003C08F0007007A03E84008313000983122B
:100C880003138800831603133C08F0007007303EF6
:100C980084000008F100320A532E0310F10DFF3EC4
:100CA800031D512E71088312031387005330F0007F
:100CB800F00B5C2E013083160313BC070318BD0A22
:100CC8000030BD073D08803AFF0080307F02031DD9
:100CD8006F2E08303C02031C722E732E3A2E013000
:100CE800F6070318F70A0030F7077708803AFF007D
:100CF80080307F02031D822E0A307602031C852E67
:100D0800862E362E013083160313B2070318B30A52
:100D18000030B3073308803AFF0080307F02031D9C
:100D2800972E08303202031C9A2E9B2E342E8316DF
:100D38000313B401B501F801F90183160313BE01C9
:100D4800BF01831603133E08F0007007A03E84001D
:100D580083130009831203138800831603133E08C4
:100D6800F0007007403E84000008F100340ABE2EEF
:100D78000310F10DFF3E031DBC2E710883120313EF
:100D880087005330F000F00BC72E01308316031391
:100D9800BE070318BF0A0030BF073F08803AFF00AC
:100DA80080307F02031DDA2E08303E02031CDD2E40
:100DB800DE2EA52E0130F8070318F90A0030F907CE
:100DC8007908803AFF0080307F02031DED2E0A303B
:100DD8007802031CF02EF12EA12E01308316031386
:100DE800B4070318B50A0030B5073508803AFF0084
:100DF80080307F02031D022F08303402031C052FA8
:100E0800062F9F2E83160313B601B701FA01FB01C3
:100E180083160313C001C101831603134008F000B1
:100E28007007A03E8400831300098312031388000F
:100E3800831603134008F0007007503E8400000832
:100E4800F100360A292F0310F10DFF3E031D272F4D
:100E580071088312031387005330F000F00B322F10
:100E6800013083160313C0070318C10A0030C107F5
:100E78004108803AFF0080307F02031D452F08306B
:100E88004002031C482F492F102F0130FA0703187E
:100E9800FB0A0030FB077B08803AFF0080307F02A6
:100EA800031D582F0A307A02031C5B2F5C2F0C2F6E
:100EB800013083160313B6070318B70A0030B707C3
:100EC8003708803AFF0080307F02031D6D2F0830FD
:100ED8003602031C702F712F0A2F83160313B801D3
:100EE800B901FC01FD0183160313C201C301831676
:100EF80003134208F0007007A03E84008313000922
:100F0800831203138800831603134208F000700746
:100F1800603E84000008F100380A942F0310F10D98
:100F2800FF3E031D922F710883120313870053306D
:100F3800F000F00B9D2F013083160313C20703182E
:100F4800C30A0030C3074308803AFF0080307F029D
:100F5800031DB02F08304202031CB32FB42F7B2F80
:100F68000130FC070318FD0A0030FD077D08803AB0
:100F7800FF0080307F02031DC32F0A307C02031C50
:100F8800C62FC72F772F013083160313B80703180E
:100F9800B90A0030B9073908803AFF0080307F026B
:100FA800031DD82F08303802031CDB2FDC2F752FC8
:100FB800C52D0A128A1100288317D030FD0004308D
:100FC800FE00FF30FF00903084000A128A11D024FE
:100FD8000A128A118313E430FD000430FE00DF306A
:100FE800FF00C43084000A128A11D0240A128A1120
:080FF80083010A128A113F2D4A
:08400000FF3FFF3FFF3FFF3FC0
:02400E003B3F36
:00000001FF
