:060000000A128A11EE2F26
:100EFC00003400340134003402340034043400343F
:100F0C0008340034103400342034003440340034BD
:100F1C00803400347E088A007F0882000A128A110D
:100F2C0090270A128A118000840A04087D0603198E
:100F3C000034FF0A0319FE0A942F8316031386014B
:100F4C00FF30880083120313B201B30120308400F8
:100F5C003430F4000408F5001230F60074088400F4
:100F6C0083130008F700F40A7508840077088000E2
:100F7C00F50AF60BB42F081CC42FC52FCF2F013048
:100F8C00B2070318B30A0030B3070818CE2FCF2FBF
:100F9C00CB2F3308803AFF0080307F02031DD82FFF
:100FAC0009303202031CDB2FDC2FE02F83120313DA
:100FBC00B201B301831203133208F4007407203E0C
:100FCC008400831300088600C12F0A128A1100289E
:100FDC0083134630FD000730FE007E30FF003430B6
:100FEC0084000A128A1194270A128A1183010A12A8
:040FFC008A11A32F84
:08400000FF3FFF3FFF3FFF3FC0
:02400E00FB3F76
:00000001FF
