:060000000A128A11FC2F18
:100F74008230831603139200831203131214921403
:100F84001215D22F910112158C1CC92FCA2FC62FEE
:100F94008C1012110130F0020030031CF103F10235
:100FA40070087104031DD72FD82FC42F080083168F
:100FB40003138501831203138501FF308312031386
:100FC40085006430F0000030F1000A128A11BA275B
:100FD4000A128A118312031385016430F000003071
:100FE400F1000A128A11BA270A128A11DF2F0A1293
:0C0FF4008A11002883010A128A11D92FEB
:08400000FF3FFF3FFF3FFF3FC0
:02400E00FB3F76
:00000001FF
