:100000000A128A11FC2F00308A000408840A820731
:100010000034483465346C346C346F3420345334D9
:100020006F34663463346F346E34203421340D34CD
:0200300000349A
:100D2A00F000831203130C1E9B2E9C2E962E700825
:100D3A009900080083120313981CA42EA52EA72E2F
:100D4A00181218168C1EAA2EAB2EA72E1A080800E7
:100D5A00F200BF2E720884000A128A1103200A12B6
:100D6A008A110A128A1195260A128A110130F10093
:100D7A007108F207720884000A128A1103200A1203
:100D8A008A11003A031DCA2ECB2EAF2E08008316F5
:100D9A0003138801003083120313A9000030A8004E
:100DAA002530A7008030A6000A128A1108270A12E5
:100DBA008A1101300A128A11AD260A128A110A1200
:100DCA008A119F260A128A11FD000F300A128A110F
:100DDA00AD260A128A1161307D06031DF52EF62E04
:100DEA00FA2E113083120313880062307D06031D28
:100DFA00FF2E002FE42E2230831203138800E42EE4
:100E0A000A128A110028FF3083120313AA00FF3046
:100E1A00AB00FF30AC00FF30AD002608AE0027085B
:100E2A00AF002808B0002908B10006300310AE0D43
:100E3A00AF0DB00DB10DFF3E031D1B2F3108F3009E
:100E4A003008F2002F08F1002E08F0000030F700F9
:100E5A00F430F6002430F5000030F4000A128A114A
:100E6A005F270A128A11700883120313AA077108EE
:100E7A000318710F412F422FAB0772080318720F24
:100E8A00472F482FAC0773080318730AAD072D08BC
:100E9A00FC002C08FB002B08FA002A08F900790844
:100EAA008316031399002430980090308312031399
:100EBA009800080083120313A101F31F652F662F00
:100ECA00732FF009F109F209F309F00A0319F10A7B
:100EDA000319F20A0319F30AA101A10AF71F762FCF
:100EEA00772F862FF409F509F609F709F40A031989
:100EFA00F50A0319F60A0319F70A0130F800780807
:100F0A00A1060030A5000030A4000030A300003084
:100F1A00A20073087204710470040319952F962FA6
:100F2A00E32FA001A00AA62F0130F8000310F00D4C
:100F3A00F10DF20DF30DF80B9B2F0130F800780834
:100F4A00A007F31FA92FAA2F992F0130F800031029
:100F5A00A20DA30DA40DA50DF80BAC2F73087702F3
:100F6A00031DC12F72087602031DC12F7108750275
:100F7A00031DC12F70087402031CC42FC52FD42F60
:100F8A007008F4027108031C710FF5027208031C41
:100F9A00720FF6027308031C730FF7022214013052
:100FAA000310F30CF20CF10CF00CFF3E031DD52FCD
:100FBA000130A002031DE22FE32FAA2F21080319F3
:100FCA00E72FE82FF32FA209A309A409A509A20A6A
:100FDA000319A30A0319A40A0319A50A2508F30089
:100FEA002408F2002308F1002208F0000800830117
:060FFA000A128A11CC2E40
:08400000FF3FFF3FFF3FFF3FC0
:02400E003B3F36
:00000001FF
